S00C0000554152542E73726563DC
S11300000C942A000C9434000C9434000C943400A6
S11300100C9434000C9434000C9434000C9434008C
S11300200C9434000C9434000C9434000C9434007C
S11300300C9434000C9434000C9434000C9434006C
S11300400C9434000C9434000C9434000C9434005C
S11300500C94340011241FBECFE5D8E0DEBFCDBF21
S11300600E9436000C944F000C9400000E943F0044
S11300700E944B008823E1F30E944700F9CF86E8F1
S113008080BD8CEF8AB987E689B910BC08955D9B61
S1130090FECF8CB908955F9BFECF8CB10895F89480
S10500A0FFCF8C
S9030000FC
